:100000000C9462000C948A000C948A000C948A0070
:100010000C948A000C948A000C948A000C948A0038
:100020000C948A000C948A000C948A000C940206AA
:100030000C948A000C948A000C948A000C948A0018
:100040000C94B8050C948A000C948A000C948A00D5
:100050000C948A000C948A000C948A000C948A00F8
:100060000C94C3060C948A000000000024002700B2
:100070002A0000000000250028002B0000000000DE
:1000800023002600290004040404040404040202DA
:100090000202020203030303030301020408102007
:1000A0004080010204081020010204081020000012
:1000B0000008000201000003040700000000000027
:1000C00000000D0811241FBECFEFD8E0DEBFCDBF6A
:1000D00011E0A0E0B1E0E2E7FBE102C005900D9283
:1000E000A435B107D9F722E0A4E5B1E001C01D9223
:1000F000A136B207E1F710E0C2E6D0E004C02197D4
:10010000FE010E94B50BC136D107C9F70E943D0818
:100110000C94B70D0C940000833081F028F48130EA
:1001200099F08230A1F008958730A9F08830B9F0B5
:100130008430D1F4809180008F7D03C08091800055
:100140008F7780938000089584B58F7702C084B53F
:100150008F7D84BD08958091B0008F7703C080911A
:10016000B0008F7D8093B0000895CF93DF93E0EBD4
:10017000F0E08491ECE9F0E0D491E8E8F0E0C4919B
:10018000CC2391F081110E948C00EC2FF0E0EE0F57
:10019000FF1FE458FF4FA591B491EC91ED2381E04E
:1001A00090E021F480E002C080E090E0DF91CF9108
:1001B00008951F93CF93DF93282F30E0F901E25584
:1001C000FF4F8491F901E656FF4FD491F901EA57A8
:1001D000FF4FC491CC23C1F0162F81110E948C00D7
:1001E000EC2FF0E0EE0FFF1FEE58FF4FA591B491FA
:1001F0009FB7F894111104C08C91D095D82302C0F8
:10020000EC91DE2BDC939FBFDF91CF911F9108957E
:10021000CF93DF9390E0FC01E656FF4F2491FC0161
:10022000EA57FF4F8491882361F190E0880F991F6E
:10023000FC01E859FF4FC591D491FC01EE58FF4FE6
:10024000A591B491611109C09FB7F8948881209558
:1002500082238883EC912E230BC0623061F49FB718
:10026000F8948881322F309583238883EC912E2B4C
:100270002C939FBF06C08FB7F894E8812E2B28835C
:100280008FBFDF91CF9108953FB7F89480913502E9
:1002900090913602A0913702B091380226B5A89B02
:1002A00005C02F3F19F00196A11DB11D3FBFBA2F08
:1002B000A92F982F8827820F911DA11DB11DBC0168
:1002C000CD0142E0660F771F881F991F4A95D1F72D
:1002D00008958F929F92AF92BF92CF92DF92EF924A
:1002E000FF926B017C010E9444014B015C01C1142F
:1002F000D104E104F104F1F00E944401DC01CB01DE
:1003000088199909AA09BB09883E9340A105B1053E
:1003100070F321E0C21AD108E108F10888EE880ED6
:1003200083E0981EA11CB11CC114D104E104F104A6
:1003300019F7DDCFFF90EF90DF90CF90BF90AF9097
:100340009F908F90089508950895CF92DF92EF9235
:10035000FF920F931F93CF93DF936C017A018B0170
:10036000C0E0D0E0CE15DF0581F0D8016D918D01A0
:10037000D601ED91FC910190F081E02DC601099527
:10038000892B11F02196EECF7E01C701DF91CF912D
:100390001F910F91FF90EF90DF90CF9008958F9273
:1003A0009F92AF92BF92CF92DF92EF92FF92FC01A9
:1003B000828128E532E06901C81AD10887FDD3940B
:1003C000CC0CDD1CCC0CDD1C0D2C000CEE08FF0849
:1003D000818128E830E04901881A910887FD9394CB
:1003E000880C991C880C991C092C000CAA08BB08C5
:1003F00080818F3FC1F090E0FC01EE0FFF1F8E0F58
:100400009F1FFC01E150FE4F2181328143E0220F0A
:10041000331F4A95E1F754E0369527955A95E1F751
:100420002E5F3F4F02C020E030E02F5F3F4FC901F9
:10043000330FAA0BBB0B9C01AD01281939094A09DE
:100440005B09A4EBB0E00E942E0BA70196012819CE
:1004500039094A095B090E940F0BC901FF90EF900F
:10046000DF90CF90BF90AF909F908F900895CF92E4
:10047000DF92EF92FF92CF93DF93EC01603282E044
:1004800078070CF03DC077FD06C0653B71052CF088
:1004900064EB70E002C060E070E0898128E830E041
:1004A0006901C81AD10887FDD394CC0CDD1CCC0C93
:1004B000DD1C0D2C000CEE08FF088A8128E532E0D7
:1004C000281B310987FD3395220F331F220F331F5D
:1004D000C901330FAA0BBB0B9C01AD012C193D09BF
:1004E0004E095F09DB010E94390B24EB30E040E04C
:1004F00050E00E940F0BC20ED31EE41EF51EB60183
:1005000038813C3080F5298188E890E0821B910990
:1005100027FD9395880F991F880F991F68177907F2
:1005200084F08A8148E552E0481B510987FD5395C4
:10053000440F551F440F551FCB01461757070CF4A6
:10054000CA010297880F991F4FB7F894232F30E004
:10055000F901EE0FFF1F2E0F3F1FF901E150FE4F73
:10056000928381834FBFDF91CF91FF90EF90DF9017
:10057000CF900895DF92EF92FF920F931F93CF9346
:10058000DF93EC01D62E7A01890188818C3008F046
:1005900068C061E08D2D0E9408018881E82FF0E09D
:1005A0009F01220F331FE20FF31FE150FE4F9D2DDD
:1005B0009F732081207CD22ED92AD08220E232E083
:1005C0002E193F0937FF02C02D5F3F4F3595279504
:1005D00035952795298320E639E0201B310B37FF1D
:1005E00002C02D5F3F4F35952795359527952A8376
:1005F0006CE00E94A90B9CE0899FB001112440E0AF
:1006000050E09B01240F351FF901EE0FFF1F2E0F45
:100610003F1FF901E150FE4F908196FD16C04F5FDC
:100620005F4F4C30510569F781110FC01092800067
:1006300082E0809381001092850010928400B19A2C
:1006400080916F00826080936F00E881F0E0CF01BD
:10065000880F991FE80FF91FE150FE4F80818064D9
:1006600080838881DF91CF911F910F91FF90EF9050
:10067000DF90089585ED8093BC008091BC0084FDDF
:10068000FCCF10922902089540919401262F30E06A
:10069000240F311D21323105DCF420912902243050
:1006A000C9F4FC0180E090E0861758F43091940181
:1006B0002191DC01AC58BE4FA30FB11D2C930196C4
:1006C000F3CF80919401680F6093940180E00895C6
:1006D00081E0089582E008950895E0912D028091CF
:1006E0002C02E81730F4F0E0EC5AFE4F808190E0E5
:1006F00008958FEF9FEF089590912D0280912C0225
:10070000981750F4E92FF0E0EC5AFE4F208130E0CA
:100710009F5F90932D0202C02FEF3FEFC901089514
:1007200080912C0290E020912D02821B9109089566
:10073000CF92DF92EF92FF920F931F93CF93DF93AD
:100740007C01CB018A012091DB01222389F0EB019E
:100750006B01C40ED51ECC15DD0569F06991D7017A
:10076000ED91FC910190F081E02DC7010995F3CF47
:10077000642F0E944403C801DF91CF911F910F9114
:10078000FF90EF90DF90CF900895CF93DF931F926B
:10079000CDB7DEB769832091DB012223D1F0209110
:1007A0002A02203240F021E030E0FC013383228332
:1007B00080E090E015C080912B02E82FF0E0E45239
:1007C000FE4F998190838F5F80932B0280932A0242
:1007D00005C061E0CE0101960E94440381E090E0F3
:1007E0000F90DF91CF910895CF93FC01C48121E058
:1007F0002093DB01C093FC0110922B0210922A027D
:100800008385682B89E392E00E94C50390912A02B8
:10081000913208F045C0809129028111FCCF82E01D
:100820008093290281E0809328028FEF8093DA0180
:100830001092D9019093D801ACEDB1E0E8EBF1E072
:1008400080E0981721F02D9121938F5FFACF1092BD
:10085000B7018091B701CC0FC82BC093B70180912D
:100860002702813061F4109227028091B7018093B2
:10087000BB008091BC0083FDF8CF85EC01C085EE04
:100880008093BC00809129028230E1F38091DA01EB
:100890008F3F31F08091DA01803211F08091DA01DE
:1008A00010922B0210922A021092DB01CF91089530
:1008B0000F931F93CF938C01C62F0E94F4036C2FCC
:1008C0006460C8010E94F4036C2F6B7FC8010E9412
:1008D000F40383EC90E00197F1F7CF911F910F9112
:1008E00008950F931F93CF93DF938C01C62FD42FBE
:1008F000607F642B0E94580480E1C89FB0011124DE
:100900006D2BC801DF91CF911F910F910C9458046A
:10091000CF93DF93CDB7DEB728970FB6F894DEBF3D
:100920000FBECDBF98E0E6E0F1E0DE011196019048
:100930000D929A95E1F790914D02981710F48FEF70
:10094000890FFE013196E80FF11DE80FF11D60815E
:10095000606840E085E492E028960FB6F894DEBF28
:100960000FBECDBFDF91CF910C94710441E00E9486
:10097000710481E090E00895089580E090E008958A
:100980000F931F93CF93DF938C01C0E0D0E0C0178B
:10099000D10784F40E94B500892B21F460E08EE039
:1009A0000E94D90061E070E080E090E00E9469015F
:1009B0002196EDCFDF91CF911F910F910895CF92A6
:1009C000DF92EF92FF920F931F93CF93DF9300D0AC
:1009D0001F92CDB7DEB769837A838B837A01690171
:1009E000421753077CF48FEFE81AF80AB701CE01DB
:1009F00001960E943702C8010E94C004CE14DF0491
:100A000091F711C02417350774F481E0E81AF10852
:100A1000B701CE0101960E943702C8010E94C004AE
:100A2000CE14DF0491F70F900F900F90DF91CF91CC
:100A30001F910F91FF90EF90DF90CF9008952F922C
:100A40003F924F925F926F927F928F929F92AF925E
:100A5000BF92CF92DF92EF92FF920F931F93CF93AB
:100A6000DF934C016B013A0119018AE592E00E9483
:100A7000CF015C0187E592E00E94CF017C0184E513
:100A800092E00E94CF012C0181E592E00E94CF010B
:100A900060915A0270915B0280915C029401A50101
:100AA0000E94DF04609157027091580280915902B0
:100AB0009601A7010E94DF046091540270915502D3
:100AC000809156029301A2010E94DF04B10181E5E9
:100AD00092E0DF91CF911F910F91FF90EF90DF9007
:100AE000CF90BF90AF909F908F907F906F905F90CE
:100AF0004F903F902F900C943702CF93DF93EC01EF
:100B000088819981009711F00E94530C19821882F4
:100B10001D821C821B821A82DF91CF9108950E9450
:100B2000A20D0F931F93CF93DF93EC0188819981DE
:100B3000009729F02A813B812617370788F48B011B
:100B40006F5F7F4F0E94DC0C009761F09983888370
:100B50001B830A832C813D81232B11F4FC0110821D
:100B600081E001C080E0DF91CF911F910F91089546
:100B70001F920F920FB60F9211242F933F938F93D2
:100B80009F93AF93BF938091310290913202A091D5
:100B90003302B09134023091300223E0230F2D371D
:100BA00020F40196A11DB11D05C026E8230F029671
:100BB000A11DB11D20933002809331029093320227
:100BC000A0933302B09334028091350290913602A3
:100BD000A0913702B09138020196A11DB11D8093FA
:100BE000350290933602A0933702B0933802BF913A
:100BF000AF919F918F913F912F910F900FBE0F90CA
:100C00001F9018951F920F920FB60F9211242F93D9
:100C10003F934F935F936F937F938F939F93AF9384
:100C2000BF93EF93FF938091FD0187FF05C0109262
:100C30008500109284001BC02091FD01022E000C43
:100C4000330B8091FE0190E02817390784F48091DE
:100C5000FD01082E000C990BFC01EE0FFF1F8E0FFB
:100C60009F1FFC01E150FE4F808186FD15C08091E1
:100C7000FD018F5F8093FD012091FD01022E000C8C
:100C8000330B8091FE0190E028173907C4F480915E
:100C9000FD018C3064F113C08091FD01082E000C21
:100CA000990BFC01EE0FFF1F8E0F9F1FFC01E150FF
:100CB000FE4F808160E08F730E94D900D8CF809171
:100CC000840090918500049680349C4918F480E457
:100CD0009CE905C0809184009091850004969093D2
:100CE0008900809388008FEF8093FD013BC02091A5
:100CF0008400309185008091FD01082E000C990B35
:100D0000FC01EE0FFF1F8E0F9F1FFC01E150FE4FF5
:100D100081819281820F931F909389008093880034
:100D20008091FD01082E000C990BFC01EE0FFF1FB6
:100D30008E0F9F1FFC01E150FE4F808186FF12C085
:100D40008091FD01082E000C990BFC01EE0FFF1F96
:100D50008E0F9F1FFC01E150FE4F808161E08F7379
:100D60000E94D900FF91EF91BF91AF919F918F9118
:100D70007F916F915F914F913F912F910F900FBE97
:100D80000F901F9018951F920F920FB60F9211247B
:100D90002F933F934F935F936F937F938F939F9383
:100DA000AF93BF93EF93FF938091B900887F803614
:100DB00009F49CC068F5883209F45BC090F4803176
:100DC00009F454C038F4882309F4F6C0883009F4D3
:100DD0004DC0F6C0883109F44CC0803209F45DC0C2
:100DE000EFC0803409F468C048F4803309F455C07A
:100DF000883309F0E5C08093DA01D8C0803509F462
:100E00004FC0883509F45DC0883409F0D9C0D6C018
:100E1000883909F4C7C0A8F4883709F467C038F4E2
:100E2000883609F463C0803709F460C0C9C08838C7
:100E300009F4B8C0803909F45FC0803809F0C0C037
:100E40005BC0803B09F486C038F4803A09F466C080
:100E5000883A09F47FC0B4C0803C09F4A7C0883C3C
:100E600009F4A4C0883B09F48AC0AAC08091B701E4
:100E700010C09091D9018091D801981770F5E09138
:100E8000D90181E08E0F8093D901F0E0E854FE4F44
:100E900080818093BB0085EC86C08093DA018EC090
:100EA000E091D90181E08E0F8093D9018091BB0040
:100EB000F0E0E854FE4F80839091D9018091D801F1
:100EC0006EC0E091D90181E08E0F8093D9018091AD
:100ED000BB00F0E0E854FE4F80838091280281112E
:100EE0006DC081E08093270284EA61C083E0809333
:100EF00029021092B601CFCF8091B601803208F05E
:100F000051C0E091B60181E08E0F8093B6018091CF
:100F1000BB00F0E0EA56FE4F8083BDCF85EC8093A6
:100F2000BC00109229028091B601803230F4E09129
:100F3000B601F0E0EA56FE4F10826091B60170E013
:100F4000E0912302F091240286E991E00995109244
:100F5000B60136C084E08093290210929501109268
:100F60009401E0912502F091260209958091940167
:100F7000811105C081E08093940110927401E09189
:100F8000950181E08E0F80939501F0E0EC58FE4FC3
:100F900080818093BB009091950180919401981776
:100FA00008F479CF85E88093BC000AC085EC809373
:100FB000BC001092290204C01092DA010E943A0388
:100FC000FF91EF91BF91AF919F918F917F916F9121
:100FD0005F914F913F912F910F900FBE0F901F90F7
:100FE0001895FC019091FE019C30A0F481E0890FDE
:100FF0008093FE019083892F90E0FC01EE0FFF1F8C
:101000008E0F9F1FFC01E150FE4F88EB9BE0928307
:10101000818308958FEF80830895E9E3F2E01382DE
:10102000128288EE93E0A0E0B0E084839583A683EB
:10103000B78382E191E0918380838AE592E00E9408
:10104000F10787E592E00E94F10784E592E00E94B3
:10105000F10781E592E00E94F107E5E4F2E01382F6
:10106000128284E291E09183808387E2848380E12D
:10107000818782E0828713860895CF93DF93CDB76F
:10108000DEB768970FB6F894DEBF0FBECDBF789479
:1010900084B5826084BD84B5816084BD85B582607D
:1010A00085BD85B5816085BD80916E00816080932E
:1010B0006E00109281008091810082608093810097
:1010C00080918100816080938100809180008160A7
:1010D000809380008091B10084608093B100809102
:1010E000B00081608093B00080917A00846080932A
:1010F0007A0080917A00826080937A0080917A00F1
:10110000816080937A0080917A00806880937A0071
:101110001092C10010922D0210922C0210922B02FC
:1011200010922A021092290281E0809328021092E4
:10113000270261E082E10E94D90061E083E10E9420
:10114000D9008091B9008E7F8093B9008091B90059
:101150008D7F8093B90088E48093B80085E4809304
:10116000BC0083EA91E0909326028093250284EAF2
:1011700091E0909324028093230210924A0280917E
:101180004F02823018F098E090934A0280934D020B
:1011900062E370E080E090E00E946901609150029B
:1011A00085E492E00E94F40368EE73E080E090E052
:1011B0000E94690160E385E492E00E9458040BE418
:1011C00016E4C8010197F1F760E385E492E00E941C
:1011D0005804C8010197F1F760E385E492E00E94AA
:1011E000580483E592E00197F1F760E285E492E02C
:1011F0000E94580460914A02606240E085E492E0F7
:101200000E94710484E080934B0240E06CE085E42E
:1012100092E00E94710440E061E085E492E00E9467
:1012200071040BE31FE1C8010197F1F782E080939D
:101230004C0240E066E085E492E00E94710440E0E8
:1012400062E085E492E00E947104C8010197F1F721
:1012500088E08093500260E085E492E00E94F4030D
:1012600080E00E94880440E150E06CE271E085E497
:1012700092E00E94A50181E00E9488044BE050E0CA
:101280006DE371E085E492E00E94A50162E082E0F6
:101290000E94080161E08EE00E94080161E08EE09A
:1012A0000E94D90020E639E044EF51E06BE070E0A5
:1012B0008AE592E00E94BA0220E639E044EF51E06C
:1012C0006AE070E087E592E00E94BA0220E639E029
:1012D00044EF51E069E070E084E592E00E94BA02D8
:1012E0002EE239E04AE852E068E070E081E592E001
:1012F0000E94BA0264EB70E08AE592E00E94370235
:1013000066E970E087E592E00E9437026AEA70E0E1
:1013100084E592E00E94370264E670E081E592E0A5
:101320000E943702CE0101967C0180E0C82E80E049
:10133000D82E0E94B500892B09F031C1A0902E0251
:10134000B0902F029FEFA91AB90AB0922F02A09273
:101350002E0260E08EE00E94D9000EE110E024E64B
:1013600030E049E950E066E970E084EB90E00E94EB
:101370001F0568EC70E080E090E00E94690124E6BF
:1013800030E049E950E060EB70E084EB90E00E94CF
:101390001F0568EC70E080E090E00E94690124E69F
:1013A00030E049E950E060EB70E084EB90E00E94AF
:1013B0001F056CE271E080E090E00E94690104E1A9
:1013C00010E02AE030E049E950E060EB70E084EBA7
:1013D00090E00E941F052AE030E049E950E065EA0C
:1013E00070E084EB90E00E941F0568EC70E080E004
:1013F00090E00E9469012AE030E04FEA50E065EA9F
:1014000070E084EB90E00E941F0581E00E94880458
:101410001C8A1B8A1E8A1D8A188E1F8A4AE0B70101
:10142000C5010E94DA0AF70101900020E9F731971F
:101430008F010E191F09B801CE0143960E94910534
:10144000811105C0CE0143960E947D0507C0188F0B
:101450000F8BB7018B899C890E94B00D1A8219826B
:101460001C821B821E821D826AE070E0C7010E94FE
:101470009105811104C0C7010E947D050AC08AE060
:1014800090E09E838D8369E471E089819A810E9456
:10149000B00D8F89988DAB88BC88A114B10409F474
:1014A00085C00097B1F00D811E81080F191FB8018A
:1014B000C7010E949105882309F478C029813A81E7
:1014C0008D819E81B501820F931F0E94B00D1E83F6
:1014D0000D834D815E8169817A8185E492E00E946D
:1014E000A50189819A810E94530C8B899C890E9455
:1014F000530C0E94B500892BE1F361E08EE00E945D
:10150000D9000AE010E02AE030E04FEA50E065EA56
:1015100070E080E090E00E941F0588EC90E00E945F
:10152000C00404E110E02AE030E04CE850E065EA55
:1015300070E080E090E00E941F0588EC90E00E943F
:10154000C00424E630E04CE850E065EA70E080E05A
:1015500090E00E941F0588EC90E00E94C0040EE11C
:1015600010E024E630E04FEA50E066E970E080E009
:1015700090E00E941F0588EC90E00E94C0040AE001
:1015800010E024E630E04FEA50E066E970E084EBDA
:1015900090E00E941F0561E08EE00E94D900C11416
:1015A000D10409F4C6CE0E940000C3CEC7010E9438
:1015B0007D058FCFBB274A3031F4992322F4BDE259
:1015C000909581959F4F0C94E60ABB27FB01552708
:1015D000AA27880F991FAA1FA41710F0A41B839590
:1015E0005051B9F7A05DAA3308F0A95DA193009707
:1015F00079F7B111B1931192CB010C94FF0ADC0180
:10160000FC01672F71917723E1F7329704C07C9139
:101610006D9370836291AE17BF07C8F30895052ECE
:1016200097FB1EF400940E94260B57FD07D00E94E2
:10163000780B07FC03D04EF40C94260B5095409584
:10164000309521953F4F4F4F5F4F0895909580956E
:10165000709561957F4F8F4F9F4F08950E949A0B11
:10166000A59F900DB49F900DA49F800D911D1124F6
:101670000895B7FF0C942E0B0E942E0B821B930B28
:1016800008952F923F924F925F926F927F928F9226
:101690009F92AF92BF92CF92DF92EF92FF920F9301
:1016A0001F93CF93DF93CDB7DEB7CA1BDB0B0FB60B
:1016B000F894DEBF0FBECDBF09942A8839884888C8
:1016C0005F846E847D848C849B84AA84B984C8845E
:1016D000DF80EE80FD800C811B81AA81B981CE0F55
:1016E000D11D0FB6F894DEBF0FBECDBFED0108953A
:1016F000A1E21A2EAA1BBB1BFD010DC0AA1FBB1F16
:10170000EE1FFF1FA217B307E407F50720F0A21B87
:10171000B30BE40BF50B661F771F881F991F1A94F4
:1017200069F760957095809590959B01AC01BD011E
:10173000CF010895A29FB001B39FC001A39F700D78
:10174000811D1124911DB29F700D811D1124911DC9
:101750000895991B79E004C0991F961708F0961B0D
:10176000881F7A95C9F780950895EE0FFF1F0590A1
:10177000F491E02D09940F931F93CF93DF93823060
:10178000910510F482E090E0E0915F02F091600238
:1017900020E030E0A0E0B0E0309719F140815181C5
:1017A0000281138148175907C8F08417950769F417
:1017B000109731F012960C93129713961C9327C032
:1017C00000935F021093600222C02115310519F0C9
:1017D0004217530718F49A01BD01EF01DF01F80128
:1017E000DBCF21153105F9F0281B390B24303105E9
:1017F00080F48A819B816115710521F0FB0193833F
:10180000828304C09093600280935F02FE0132964F
:1018100044C0FE01E20FF31F8193919322503109DE
:10182000398328833AC020915D0230915E02232BD8
:1018300041F4209102013091030130935E02209324
:101840005D0220910001309101012115310541F423
:101850002DB73EB74091040150910501241B350B73
:10186000E0915D02F0915E02E217F307A0F42E1BF7
:101870003F0B2817390778F0AC014E5F5F4F2417F4
:10188000350748F04E0F5F1F50935E0240935D0294
:101890008193919302C0E0E0F0E0CF01DF91CF911E
:1018A0001F910F910895CF93DF93009709F481C0A2
:1018B000FC01329713821282A0915F02B091600204
:1018C000109781F420813181820F931F20915D0256
:1018D00030915E022817390751F5F0935E02E093CC
:1018E0005D0267C0ED0120E030E0CE17DF0740F475
:1018F0004A815B819E0141155105F1F0EA01F5CF66
:10190000D383C28340815181840F951FC817D907A3
:1019100059F488819981840F951F02969183808361
:101920008A819B81938382832115310529F4F09369
:101930006002E0935F023DC0E901FB83EA834991C5
:101940005991C40FD51FEC17FD0761F48081918177
:10195000840F951F0296E901998388838281938180
:101960009B838A83E0E0F0E012968D919C9113971F
:10197000009719F0FD01DC01F7CF8D919C91119733
:101980009D012E5F3F4F820F931F20915D0230918A
:101990005E022817390769F4309729F41092600223
:1019A00010925F0202C013821282B0935E02A09373
:1019B0005D02DF91CF910895A0E0B0E0E2EEFCE09F
:1019C0000C94450BEC01009721F4CB010E94BB0B5A
:1019D000B4C0FC01E60FF71F9C0122503109E21749
:1019E000F30708F4A8C0D9010D911C9111970617AF
:1019F0001707B0F00530110508F49BC0C801049723
:101A00008617970708F495C002501109061B170B9B
:101A1000019311936D937C93CF010E94530C89C065
:101A20005B01A01AB10A4C01800E911EA0915F02C9
:101A3000B0916002612C712CE12CF12C109709F40B
:101A400046C08D919C911197A815B905B1F56C010F
:101A500042E0C40ED11CCA14DB0478F14C018A1890
:101A60009B08640142E0C40ED11C1296BC901297F0
:101A70001396AC91B5E0CB16D10440F0B282A383AB
:101A800091828082D9016D937C9309C00E5F1F4FB4
:101A9000800F911FF90191838083EB2DFA2FE114C0
:101AA000F10431F0D7011396FC93EE93129741C0E5
:101AB000F0936002E0935F023CC06816790608F478
:101AC0003C017D0112960D90BC91A02DB7CF809165
:101AD0005D0290915E0288169906E1F4661677061B
:101AE000C8F48091000190910101009741F48DB7F5
:101AF0009EB74091040150910501841B950BE81796
:101B0000F907C8F4F0935E02E0935D02F901718376
:101B100060830FC0CB010E94BB0B7C01009759F082
:101B2000A801BE010E94A70DCE010E94530CC7015F
:101B300004C0CE0102C080E090E0CDB7DEB7EEE099
:101B40000C94610B81E090E0F8940C94B70DFB01CC
:101B5000DC0102C001900D9241505040D8F7089529
:101B6000FB01DC0101900D920020E1F70895F8944B
:021B7000FFCFA5
:101B720000006102800000004000140054000000D8
:101B82000000C5039803BD046C0390037C036D033E
:101B920000000000B604A501BD04BC04444F20416E
:101BA2004E20544F54204E474849455000536F2011
:101BB2004C756F6E673A203000536F204C756F6E14
:041BC200673A20005E
:107800000C94343C0C94513C0C94513C0C94513CE1
:107810000C94513C0C94513C0C94513C0C94513CB4
:107820000C94513C0C94513C0C94513C0C94513CA4
:107830000C94513C0C94513C0C94513C0C94513C94
:107840000C94513C0C94513C0C94513C0C94513C84
:107850000C94513C0C94513C0C94513C0C94513C74
:107860000C94513C0C94513C11241FBECFEFD8E036
:10787000DEBFCDBF11E0A0E0B1E0ECE9FFE702C060
:1078800005900D92A230B107D9F712E0A2E0B1E065
:1078900001C01D92AD30B107E1F70E942D3D0C945F
:1078A000CC3F0C94003C982F959595959595959582
:1078B000905D8F708A307CF0282F295A8091C0000B
:1078C00085FFFCCF9093C6008091C00085FFFCCF60
:1078D0002093C6000895282F205DF0CF982F809127
:1078E000C00085FFFCCF9093C6000895EF92FF92F1
:1078F0000F931F93EE24FF2487018091C00087FD22
:1079000017C00894E11CF11C011D111D81E4E8164B
:1079100082E4F8068FE0080780E0180770F3E09132
:107920000401F091050109958091C00087FFE9CF1E
:107930008091C6001F910F91FF90EF9008950E94D3
:10794000763C982F8091C00085FFFCCF9093C600B5
:1079500091362CF490330CF09053892F089597555D
:10796000892F08951F930E949F3C182F0E949F3CCF
:107970001295107F810F1F9108951F93182F882350
:1079800021F00E94763C1150E1F71F9108951F935A
:10799000182F0E94763C803249F0809103018F5F5E
:1079A000809303018530C1F01F9108958091C0003C
:1079B00085FFFCCF84E18093C6008091C00085FFE5
:1079C000FCCF1093C6008091C00085FFFCCF80E102
:1079D0008093C6001F910895E0910401F091050184
:1079E00009951F9108950E94763C803241F0809164
:1079F00003018F5F80930301853081F008958091AA
:107A0000C00085FFFCCF84E18093C6008091C00058
:107A100085FFFCCF80E18093C6000895E0910401CA
:107A2000F09105010995089540E951E08823A1F0FE
:107A30002D9A28EE33E0FA013197F1F721503040CA
:107A4000D1F72D9828EE33E0FA013197F1F7215064
:107A50003040D1F7815061F708953F924F925F9285
:107A60006F927F928F929F92AF92BF92CF92DF924E
:107A7000EF92FF920F931F93CF93DF93000080E16B
:107A80008093C4001092C50088E18093C10086E015
:107A90008093C2005098589A259A81E00E94143D24
:107AA00024E1F22E9EE1E92E85E9D82E0FE0C02ECA
:107AB00010E1B12EAA24A394B1E49B2EA6E58A2E50
:107AC000F2E57F2EE0E26E2E79E4572E63E5462E36
:107AD00050E5352E0E94763C8033B1F18133B9F107
:107AE000803409F46FC0813409F476C0823409F41B
:107AF00085C0853409F488C0803531F1823521F1A3
:107B0000813511F1853509F485C0863509F48DC0BC
:107B1000843609F496C0843709F403C1853709F423
:107B200072C1863709F466C0809103018F5F80932C
:107B30000301853079F6E0910401F0910501099582
:107B40000E94763C803351F60E94F33CC3CF0E94E2
:107B5000763C803249F78091C00085FFFCCFF092DF
:107B6000C6008091C00085FFFCCF9092C600809136
:107B7000C00085FFFCCF8092C6008091C00085FFC9
:107B8000FCCF7092C6008091C00085FFFCCF609250
:107B9000C6008091C00085FFFCCF5092C600809146
:107BA000C00085FFFCCF4092C6008091C00085FFD9
:107BB000FCCF3092C6008091C00085FFFCCFB09210
:107BC000C60088CF0E94763C863808F4BDCF0E945C
:107BD000763C0E94F33C7ECF0E94763C803809F4CC
:107BE0009CC0813809F40BC1823809F43CC1883942
:107BF00009F48FC080E00E94C73C6CCF84E10E94F2
:107C0000BD3C0E94F33C66CF85E00E94BD3C0E94D3
:107C1000F33C60CF0E94763C809306010E94763C44
:107C2000809307010E94F33C55CF0E94763C80333D
:107C300009F41DC183E00E94BD3C80E00E94C73C66
:107C400049CF0E94763C809309020E94763C809343
:107C5000080280910C028E7F80930C020E94763C79
:107C6000853409F415C18091080290910902892B8D
:107C700089F000E010E00E94763CF801E85FFE4FDA
:107C800080830F5F1F4F80910802909109020817AF
:107C9000190788F30E94763C803209F045CF809125
:107CA0000C0280FF01C16091060170910701660F0F
:107CB000771F7093070160930601A0910802B091AD
:107CC00009021097C9F0E8E0F1E09B01AD014E0F09
:107CD0005F1FF999FECF32BD21BD819180BDFA9A17
:107CE000F99A2F5F3F4FE417F50799F76A0F7B1F4B
:107CF00070930701609306018091C00085FFFCCF5F
:107D0000F092C6008091C00085FFFCCFB092C60003
:107D1000E1CE83E00E94C73CDDCE82E00E94C73CFA
:107D2000D9CE0E94763C809309020E94763C8093D3
:107D300008028091060190910701880F991F909386
:107D40000701809306010E94763C853409F4A6C0A1
:107D500080910C028E7F80930C020E94763C8032D0
:107D600009F0B8CE8091C00085FFFCCFF092C6002C
:107D7000609108027091090261157105B9F140E046
:107D800050E080910C02A82FA170B82FB27011C0E2
:107D9000BB2309F45CC0E0910601F0910701319624
:107DA000F0930701E09306014F5F5F4F46175707B7
:107DB000E8F4AA2369F3F999FECF209106013091E6
:107DC000070132BD21BDF89A90B58091C00085FFB2
:107DD000FCCF9093C6002F5F3F4F30930701209355
:107DE00006014F5F5F4F4617570718F38091C00099
:107DF00085FDE5CE8091C00085FFF8CFE0CE81E023
:107E00000E94C73C67CE0E94763C803209F08CCE3F
:107E10008091C00085FFFCCFF092C6008091C00029
:107E200085FFFCCFE092C6008091C00085FFFCCFAB
:107E3000D092C6008091C00085FFFCCFC092C600E2
:107E40008091C00085FFFCCFB092C60043CEE09188
:107E50000601F091070194918091C00085FFFCCF4D
:107E60009093C6009CCF80E10E94C73C33CE0E9415
:107E7000763C0E94763C182F0E94763C112309F430
:107E800083C0113009F484C08FE00E94C73C22CE29
:107E900080910C02816080930C02E5CE80910C02EF
:107EA000816080930C0259CF809107018823880F4D
:107EB000880B8A2180930B02809106019091070123
:107EC000880F991F90930701809306018091080203
:107ED00080FF09C080910802909109020196909359
:107EE000090280930802F894F999FECF1127E091D6
:107EF0000601F0910701C8E0D1E08091080290915D
:107F00000902103091F40091570001700130D9F34B
:107F100003E000935700E89500915700017001308D
:107F2000D9F301E100935700E89509901990009169
:107F3000570001700130D9F301E000935700E89534
:107F40001395103498F011270091570001700130FB
:107F5000D9F305E000935700E895009157000170B0
:107F60000130D9F301E100935700E895329602976A
:107F700009F0C7CF103011F00296E5CF112480919F
:107F8000C00085FFB9CEBCCE8EE10E94C73CA2CD19
:0C7F900085E90E94C73C9ECDF894FFCF0D
:027F9C00800063
:040000030000780081
:00000001FF
