:100000000C9435000C945D000C945D000C945D0024
:100010000C945D000C945D000C945D000C945D00EC
:100020000C945D000C945D000C945D000C945D00DC
:100030000C945D000C945D000C945D000C945D00CC
:100040000C94E7010C945D000C9457020C9431025F
:100050000C945D000C945D000C945D000C945D00AC
:100060000C945D000C945D00370311241FBECFEF8C
:10007000D8E0DEBFCDBF11E0A0E0B1E0E6E2F7E0FE
:1000800002C005900D92A231B107D9F721E0A2E19B
:10009000B1E001C01D92A83BB207E1F710E0C5E353
:1000A000D0E004C02197FE010E948603C433D1072B
:1000B000C9F70E9489020C9491030C9400003FB789
:1000C000F8948091170190911801A0911901B091B5
:1000D0001A0126B5A89B05C02F3F19F00196A11D56
:1000E000B11D3FBFBA2FA92F982F8827820F911DCE
:1000F000A11DB11DBC01CD0142E0660F771F881F15
:10010000991F4A95D1F70895CF92DF92EF92FF920F
:100110000F931F93CF93DF936C017A018B01C0E0A3
:10012000D0E0CE15DF0581F0D8016D918D01D601AB
:10013000ED91FC910190F081E02DC6010995892B8C
:1001400011F02196EECF7E01C701DF91CF911F9173
:100150000F91FF90EF90DF90CF900895089580E089
:1001600090E00895FC01538D448D252F30E0842FBD
:1001700090E0821B930B541710F0CF9608950197CF
:100180000895FC01918D828D981761F0828DDF01B9
:10019000A80FB11D5D968C91928D9F5F9F73928F7A
:1001A00090E008958FEF9FEF0895FC01918D828D6F
:1001B000981731F0828DE80FF11D858D90E008953C
:1001C0008FEF9FEF0895FC01918D228D892F90E094
:1001D000805C9F4F821B91098F73992708958BE153
:1001E00091E00E94E30021E0892B09F420E0822FB6
:1001F0000895FC01848DDF01A80FB11DA35ABF4FE4
:100200002C91848D90E001968F739927848FA68915
:10021000B7892C93A089B1898C91837080648C9369
:10022000938D848D981306C00288F389E02D808118
:100230008F7D80830895EF92FF920F931F93CF934A
:10024000DF93EC0181E0888F9B8D8C8D981305C026
:10025000E889F989808185FD26C0F62E0B8D10E096
:100260000F5F1F4F0F731127E02E8C8DE8120CC00B
:100270000FB607FCFACFE889F989808185FFF5CFB1
:10028000CE010E94F900F1CF8B8DFE01E80FF11D28
:10029000E35AFF4FF0829FB7F8940B8FEA89FB89EE
:1002A000808180620AC09FB7F894EE89FF896083DD
:1002B000E889F98980818370806480839FBF81E0B1
:1002C00090E0DF91CF911F910F91FF90EF900895F3
:1002D000CF93DF93EC01888D8823C9F0EA89FB89ED
:1002E000808185FD05C0A889B9898C9186FD0FC0E4
:1002F0000FB607FCF5CF808185FFF2CFA889B989B9
:100300008C9185FFEDCFCE010E94F900E7CFDF9100
:10031000CF91089580E090E0892B29F00E94EF00B2
:1003200081110C94000008958F929F92AF92BF921A
:100330000F931F93CF93DF93CDB7DEB7A1970FB67F
:10034000F894DEBF0FBECDBF19A2423008F44AE0D8
:100350008E010F5D1F4F842E912CA12CB12CA50175
:1003600094010E946403E62FB901CA0101501109EA
:10037000EA3014F4E05D01C0E95CD801EC93232B72
:10038000242B252B61F70115110571F0F80101905F
:100390000020E9F73197AF01401B510BB8018BE109
:1003A00091E00E94840002C080E090E0A1960FB628
:1003B000F894DEBF0FBECDBFDF91CF911F910F919B
:1003C000BF90AF909F908F9008950E948C031F92D2
:1003D0000F920FB60F9211242F933F938F939F93F9
:1003E000AF93BF938091130190911401A0911501D7
:1003F000B09116013091120123E0230F2D3720F424
:100400000196A11DB11D05C026E8230F0296A11D6E
:10041000B11D209312018093130190931401A093B6
:100420001501B09316018091170190911801A091C8
:100430001901B0911A010196A11DB11D80931701F8
:1004400090931801A0931901B0931A01BF91AF9135
:100450009F918F913F912F910F900FBE0F901F9002
:1004600018951F920F920FB60F9211242F933F935E
:100470004F935F936F937F938F939F93AF93BF93AC
:10048000EF93FF938BE191E00E94F900FF91EF91D0
:10049000BF91AF919F918F917F916F915F914F919C
:1004A0003F912F910F900FBE0F901F9018951F92A4
:1004B0000F920FB60F9211242F938F939F93EF9368
:1004C000FF93E0912B01F0912C018081E0913101AB
:1004D000F091320182FD12C09081809134018F5FD2
:1004E0008F7320913501821751F0E0913401F0E0D3
:1004F000E55EFE4F958F8093340101C08081FF91AE
:10050000EF919F918F912F910F900FBE0F901F90A1
:100510001895789484B5826084BD84B5816084BD6B
:1005200085B5826085BD85B5816085BD80916E0091
:10053000816080936E0010928100809181008260C2
:1005400080938100809181008160809381008091FF
:1005500080008160809380008091B10084608093EE
:10056000B1008091B00081608093B00080917A00EA
:10057000846080937A0080917A00826080937A0010
:1005800080917A00816080937A0080917A008068FF
:1005900080937A001092C100E0912B01F0912C0120
:1005A00082E08083E0912701F09128011082E091A0
:1005B0002901F0912A018FEC808310923301E091A0
:1005C0002F01F091300186E08083E0912D01F091C0
:1005D0002E01808180618083E0912D01F0912E01B8
:1005E000808188608083E0912D01F0912E018081CF
:1005F00080688083E0912D01F0912E0180818F7DB4
:1006000080834AE061E070E080E090E00E94940125
:100610000E945F004B015C0188ECC82ED12CE12CBC
:10062000F12C0E945F00DC01CB0188199909AA090D
:10063000BB09883E9340A105B10598F321E0C21A99
:10064000D108E108F10888EE880E83E0981EA11C0D
:10065000B11CC114D104E104F10419F74AE060E0CF
:1006600070E0CB010E9494010E948A01CACFEBE1A5
:10067000F1E01382128288EE93E0A0E0B0E0848380
:100680009583A683B78384E091E09183808385EC92
:1006900090E09587848784EC90E09787868780EC4C
:1006A00090E0918B808B81EC90E0938B828B82EC3D
:1006B00090E0958B848B86EC90E0978B868B118EE7
:1006C000128E138E148E0895A1E21A2EAA1BBB1B44
:1006D000FD010DC0AA1FBB1FEE1FFF1FA217B3070E
:1006E000E407F50720F0A21BB30BE40BF50B661F24
:1006F000771F881F991F1A9469F7609570958095E8
:1007000090959B01AC01BD01CF010895EE0FFF1F35
:100710000590F491E02D099481E090E0F8940C9418
:060720009103F894FFCFE5
:10072600000000001B018400B2006801E300C10064
:02073600D500EC
:107E0000112484B714BE81FFF0D085E080938100F7
:107E100082E08093C00088E18093C10086E0809377
:107E2000C20080E18093C4008EE0C9D0259A86E02C
:107E300020E33CEF91E0309385002093840096BBD3
:107E4000B09BFECF1D9AA8958150A9F7CC24DD24C4
:107E500088248394B5E0AB2EA1E19A2EF3E0BF2EE7
:107E6000A2D0813461F49FD0082FAFD0023811F036
:107E7000013811F484E001C083E08DD089C08234E0
:107E800011F484E103C0853419F485E0A6D080C0E4
:107E9000853579F488D0E82EFF2485D0082F10E0AE
:107EA000102F00270E291F29000F111F8ED06801E7
:107EB0006FC0863521F484E090D080E0DECF843638
:107EC00009F040C070D06FD0082F6DD080E0C81688
:107ED00080E7D80618F4F601B7BEE895C0E0D1E017
:107EE00062D089930C17E1F7F0E0CF16F0E7DF06D8
:107EF00018F0F601B7BEE89568D007B600FCFDCFD4
:107F0000A601A0E0B1E02C9130E011968C91119780
:107F100090E0982F8827822B932B1296FA010C0160
:107F200087BEE89511244E5F5F4FF1E0A038BF0790
:107F300051F7F601A7BEE89507B600FCFDCF97BE46
:107F4000E89526C08437B1F42ED02DD0F82E2BD052
:107F50003CD0F601EF2C8F010F5F1F4F84911BD097
:107F6000EA94F801C1F70894C11CD11CFA94CF0C13
:107F7000D11C0EC0853739F428D08EE10CD085E9AC
:107F80000AD08FE07ACF813511F488E018D01DD067
:107F900080E101D065CF982F8091C00085FFFCCF94
:107FA0009093C60008958091C00087FFFCCF809118
:107FB000C00084FD01C0A8958091C6000895E0E648
:107FC000F0E098E1908380830895EDDF803219F02E
:107FD00088E0F5DFFFCF84E1DECF1F93182FE3DFCA
:107FE0001150E9F7F2DF1F91089580E0E8DFEE27F6
:047FF000FF270994CA
:027FFE00040479
:0400000300007E007B
:00000001FF
