:100000000C9462000C948A000C948A000C948A0070
:100010000C948A000C948A000C948A000C948A0038
:100020000C948A000C948A000C948A000C946D063F
:100030000C948A000C948A000C948A000C948A0018
:100040000C9423060C948A000C94F1050C94CB05B7
:100050000C948A000C948A000C948A000C948A00F8
:100060000C942E070C948A00000000002400270046
:100070002A0000000000250028002B0000000000DE
:1000800023002600290004040404040404040202DA
:100090000202020203030303030301020408102007
:1000A0004080010204081020010204081020000012
:1000B0000008000201000003040700000000000027
:1000C0000000740811241FBECFEFD8E0DEBFCDBF03
:1000D00011E0A0E0B1E0E6E3F8E102C005900D9286
:1000E000AA34B107D9F722E0AAE4B1E001C01D9219
:1000F000A73EB207E1F710E0C2E6D0E004C02197C6
:10010000FE010E940E0CC136D107C9F70E94CE082D
:100110000C94190C0C940000EAEEF1E0A089B1896E
:1001200082E08C93A485B5851C92A685B7858FEC5B
:100130008C93108EA489B58986E08C93A289B389AB
:100140008C9180618C93A289B3898C9188608C9307
:10015000A289B3898C9180688C930288F389E02D01
:1001600080818F7D80830895CF92DF92EF92FF92FE
:100170000F931F93CF93DF936C017A018B01C0E043
:10018000D0E0CE15DF0581F0D8016D918D01D6014B
:10019000ED91FC910190F081E02DC6010995892B2C
:1001A00011F02196EECF7E01C701DF91CF911F9113
:1001B0000F91FF90EF90DF90CF9008950895FC018C
:1001C000538D448D252F30E0842F90E0821B930BBC
:1001D000541710F0CF96089501970895FC01918D62
:1001E000828D981761F0828DDF01A80FB11D5D9699
:1001F0008C91928D9F5F9F73928F90E008958FEF07
:100200009FEF0895FC01918D828D981731F0828DBA
:10021000E80FF11D858D90E008958FEF9FEF089511
:10022000FC01918D228D892F90E0805C9F4F821B75
:1002300091098F73992708958AEE91E00E94100129
:1002400021E0892B09F420E0822F0895FC01848DA0
:10025000DF01A80FB11DA35ABF4F2C91848D90E0F0
:1002600001968F739927848FA689B7892C93A089CB
:10027000B1898C91837080648C93938D848D981355
:1002800006C00288F389E02D80818F7D80830895E8
:10029000EF92FF920F931F93CF93DF93EC0181E0D6
:1002A000888F9B8D8C8D981305C0E889F989808192
:1002B00085FD26C0F62E0B8D10E00F5F1F4F0F73CC
:1002C0001127E02E8C8DE8120CC00FB607FCFACF78
:1002D000E889F989808185FFF5CFCE010E9426014A
:1002E000F1CF8B8DFE01E80FF11DE35AFF4FF08235
:1002F0009FB7F8940B8FEA89FB89808180620AC0DE
:100300009FB7F894EE89FF896083E889F989808135
:100310008370806480839FBF81E090E0DF91CF9104
:100320001F910F91FF90EF900895CF93DF93EC0111
:10033000888D8823C9F0EA89FB89808185FD05C005
:10034000A889B9898C9186FD0FC00FB607FCF5CF3F
:10035000808185FFF2CFA889B9898C9185FFEDCF87
:10036000CE010E942601E7CFDF91CF91089580E072
:1003700090E0892B29F00E941C0181110C9400004F
:100380000895833081F028F4813099F08230A1F013
:1003900008958730A9F08830B9F08430D1F4809185
:1003A00080008F7D03C0809180008F7780938000D4
:1003B000089584B58F7702C084B58F7D84BD08957C
:1003C0008091B0008F7703C08091B0008F7D8093C3
:1003D000B0000895CF93DF93E0EBF0E08491ECE977
:1003E000F0E0D491E8E8F0E0C491CC2391F08111E1
:1003F0000E94C101EC2FF0E0EE0FFF1FE458FF4F09
:10040000A591B491EC91ED2381E090E021F480E09E
:1004100002C080E090E0DF91CF9108951F93CF93C9
:10042000DF93282F30E0F901E255FF4F8491F90165
:10043000E656FF4FD491F901EA57FF4FC491CC2300
:10044000C1F0162F81110E94C101EC2FF0E0EE0FD8
:10045000FF1FEE58FF4FA591B4919FB7F89411116B
:1004600004C08C91D095D82302C0EC91DE2BDC9394
:100470009FBFDF91CF911F910895CF93DF9390E0BD
:10048000FC01E656FF4F2491FC01EA57FF4F84918F
:10049000882361F190E0880F991FFC01E859FF4F14
:1004A000C591D491FC01EE58FF4FA591B491611113
:1004B00009C09FB7F8948881209582238883EC91A6
:1004C0002E230BC0623061F49FB7F8948881322FDD
:1004D000309583238883EC912E2B2C939FBF06C0ED
:1004E0008FB7F894E8812E2B28838FBFDF91CF91AF
:1004F00008953FB7F8948091E0019091E101A091B7
:10050000E201B091E30126B5A89B05C02F3F19F089
:100510000196A11DB11D3FBFBA2FA92F982F882783
:10052000820F911DA11DB11DBC01CD0142E0660FDE
:10053000771F881F991F4A95D1F708958F929F9230
:10054000AF92BF92CF92DF92EF92FF926B017C014C
:100550000E9479024B015C01C114D104E104F10451
:10056000F1F00E947902DC01CB0188199909AA09EE
:10057000BB09883E9340A105B10570F321E0C21A82
:10058000D108E108F10888EE880E83E0981EA11CCE
:10059000B11CC114D104E104F10419F7DDCFFF90BF
:1005A000EF90DF90CF90BF90AF909F908F90089585
:1005B0002FB7F8946091DC017091DD018091DE012C
:1005C0009091DF012FBF08958F929F92AF92BF92BB
:1005D000CF92DF92EF92FF92FC01828128E532E018
:1005E0006901C81AD10887FDD394CC0CDD1CCC0C52
:1005F000DD1C0D2C000CEE08FF08818128E830E09E
:100600004901881A910887FD9394880C991C880CDD
:10061000991C092C000CAA08BB0880818F3FC1F0EF
:1006200090E0FC01EE0FFF1F8E0F9F1FFC01E954AD
:10063000FE4F2181328143E0220F331F4A95E1F7BB
:1006400054E0369527955A95E1F72E5F3F4F02C04B
:1006500020E030E02F5F3F4FC901330FAA0BBB0BE7
:100660009C01AD01281939094A095B09A4EBB0E0E6
:100670000E94E00BA7019601281939094A095B0974
:100680000E94C10BC901FF90EF90DF90CF90BF9007
:10069000AF909F908F900895CF92DF92EF92FF924C
:1006A000CF93DF93EC01603282E078070CF03DC01D
:1006B00077FD06C0653B71052CF064EB70E002C06D
:1006C00060E070E0898128E830E06901C81AD1084B
:1006D00087FDD394CC0CDD1CCC0CDD1C0D2C000C48
:1006E000EE08FF088A8128E532E0281B310987FDE2
:1006F0003395220F331F220F331FC901330FAA0B6B
:10070000BB0B9C01AD012C193D094E095F09DB01B2
:100710000E94EB0B24EB30E040E050E00E94C10B64
:10072000C20ED31EE41EF51EB60138813C3080F5A2
:10073000298188E890E0821B910927FD9395880F15
:10074000991F880F991F6817790784F08A8148E5F7
:1007500052E0481B510987FD5395440F551F440F24
:10076000551FCB01461757070CF4CA010297880F93
:10077000991F4FB7F894232F30E0F901EE0FFF1FB8
:100780002E0F3F1FF901E954FE4F928381834FBF23
:10079000DF91CF91FF90EF90DF90CF900895DF929F
:1007A000EF92FF920F931F93CF93DF93EC01D62E1E
:1007B0007A01890188818C3008F068C061E08D2D54
:1007C0000E943D028881E82FF0E09F01220F331F35
:1007D000E20FF31FE954FE4F9D2D9F732081207C73
:1007E000D22ED92AD08220E232E02E193F0937FFDB
:1007F00002C02D5F3F4F3595279535952795298365
:1008000020E639E0201B310B37FF02C02D5F3F4F40
:1008100035952795359527952A836CE00E94020C23
:100820009CE0899FB001112440E050E09B01240F1F
:10083000351FF901EE0FFF1F2E0F3F1FF901E9547D
:10084000FE4F908196FD16C04F5F5F4F4C305105B3
:1008500069F781110FC01092800082E080938100BF
:100860001092850010928400B19A80916F0082608E
:1008700080936F00E881F0E0CF01880F991FE80FA7
:10088000F91FE954FE4F8081806480838881DF9165
:10089000CF911F910F91FF90EF90DF90089585ED1C
:1008A0008093BC008091BC0084FDFCCF10928F012E
:1008B000089540916B01262F30E0240F311D213225
:1008C0003105DCF420918F012430C9F4FC0180E073
:1008D00090E0861758F430916B012191DC01A55B03
:1008E000BE4FA30FB11D2C930196F3CF80916B01E6
:1008F000680F60936B0180E0089581E0089582E0C5
:1009000008958FEF9FEF08958FEF9FEF08958091E7
:100910004A0190E09195819591090895CF93DF93D5
:10092000CB01EA01642F0E945904CE01DF91CF91DF
:100930000895CF93DF931F92CDB7DEB7698361E04F
:10094000CE0101960E94590481E090E00F90DF9162
:10095000CF910895089580E090E008950F931F933C
:10096000CF93DF938C01C0E0D0E0C017D10784F4AF
:100970000E94EA01892B21F460E08EE00E940E02C1
:1009800061E070E080E090E00E949E022196EDCF51
:10099000DF91CF911F910F910895CF92DF92EF9247
:1009A000FF920F931F93CF93DF9300D01F92CDB789
:1009B000DEB769837A838B837A0169014217530713
:1009C0007CF48FEFE81AF80AB701CE0101960E9475
:1009D0004C03C8010E94AE04CE14DF0491F711C08D
:1009E0002417350774F481E0E81AF108B701CE0145
:1009F00001960E944C03C8010E94AE04CE14DF048D
:100A000091F70F900F900F90DF91CF911F910F9161
:100A1000FF90EF90DF90CF9008952F923F924F92EA
:100A20005F926F927F928F929F92AF92BF92CF927E
:100A3000DF92EF92FF920F931F93CF93DF934C01BE
:100A40006B013A01190184EE92E00E94E4025C011C
:100A500081EE92E00E94E4027C018EED92E00E9421
:100A6000E4022C018BED92E00E94E4026091E4022A
:100A70007091E5028091E6029401A5010E94CD04E7
:100A80006091E1027091E2028091E3029601A70178
:100A90000E94CD046091DE027091DF028091E0023D
:100AA0009301A2010E94CD04B1018BED92E0DF9190
:100AB000CF911F910F91FF90EF90DF90CF90BF905B
:100AC000AF909F908F907F906F905F904F903F90EE
:100AD0002F900C944C036115710579F0FB01019086
:100AE0000020E9F73197AF01461B570BDC01ED9170
:100AF000FC910280F381E02D099480E090E008955C
:100B00008F929F92AF92BF92EF92FF920F931F939B
:100B1000CF93DF93CDB7DEB7A1970FB6F894DEBFC2
:100B20000FBECDBF7C01FA01CB0119A2223008F41F
:100B30002AE08E010F5D1F4F822E912CA12CB12C2B
:100B4000BF01A50194010E949F0BF901CA01015048
:100B500011096A3014F4605D01C0695CD8016C93BE
:100B6000232B242B252B61F7B801C7010E946B05AD
:100B7000A1960FB6F894DEBF0FBECDBFDF91CF9127
:100B80001F910F91FF90EF90BF90AF909F908F902B
:100B900008950E94140C1F920F920FB60F92112409
:100BA0002F933F934F935F936F937F938F939F9375
:100BB000AF93BF93EF93FF938AEE91E00E942601DB
:100BC000FF91EF91BF91AF919F918F917F916F9125
:100BD0005F914F913F912F910F900FBE0F901F90FB
:100BE00018951F920F920FB60F9211242F938F9387
:100BF0009F93EF93FF93E091FA01F091FB018081C5
:100C0000E0910002F091010282FD12C0908180917A
:100C100003028F5F8F7320910402821751F0E091DD
:100C20000302F0E0E651FE4F958F8093030201C06E
:100C30008081FF91EF919F918F912F910F900FBE27
:100C40000F901F9018951F920F920FB60F921124BC
:100C50002F933F938F939F93AF93BF938091DC012A
:100C60009091DD01A091DE01B091DF013091DB01B7
:100C700023E0230F2D3720F40196A11DB11D05C0DF
:100C800026E8230F0296A11DB11D2093DB0180935E
:100C9000DC019093DD01A093DE01B093DF01809130
:100CA000E0019091E101A091E201B091E301019690
:100CB000A11DB11D8093E0019093E101A093E20199
:100CC000B093E301BF91AF919F918F913F912F918D
:100CD0000F900FBE0F901F9018951F920F920FB696
:100CE0000F9211242F933F934F935F936F937F93B2
:100CF0008F939F93AF93BF93EF93FF938091B50131
:100D000087FF05C010928500109284001BC02091BF
:100D1000B501022E000C330B8091B60190E028172C
:100D2000390784F48091B501082E000C990BFC0161
:100D3000EE0FFF1F8E0F9F1FFC01E954FE4F8081B5
:100D400086FD15C08091B5018F5F8093B50120911C
:100D5000B501022E000C330B8091B60190E02817EC
:100D60003907C4F48091B5018C3064F113C08091CF
:100D7000B501082E000C990BFC01EE0FFF1F8E0F22
:100D80009F1FFC01E954FE4F808160E08F730E9439
:100D90000E02D8CF80918400909185000496803413
:100DA0009C4918F480E49CE905C0809184009091EE
:100DB0008500049690938900809388008FEF80933C
:100DC000B5013BC020918400309185008091B50130
:100DD000082E000C990BFC01EE0FFF1F8E0F9F1FBA
:100DE000FC01E954FE4F81819281820F931F909301
:100DF0008900809388008091B501082E000C990B22
:100E0000FC01EE0FFF1F8E0F9F1FFC01E954FE4FE8
:100E1000808186FF12C08091B501082E000C990BCD
:100E2000FC01EE0FFF1F8E0F9F1FFC01E954FE4FC8
:100E3000808161E08F730E940E02FF91EF91BF915C
:100E4000AF919F918F917F916F915F914F913F9162
:100E50002F910F900FBE0F901F9018951F920F9219
:100E60000FB60F9211242F933F934F935F936F937D
:100E70007F938F939F93AF93BF93EF93FF93809153
:100E8000B900887F803609F49CC068F5883209F47F
:100E90005BC090F4803109F454C038F4882309F41D
:100EA000F2C0883009F44DC0F2C0883109F44CC05A
:100EB000803209F45DC0EBC0803409F468C048F4A6
:100EC000803309F455C0883309F0E1C080938E0166
:100ED000D4C0803509F44FC0883509F45DC088342A
:100EE00009F0D5C0D2C0883909F4C3C0A8F4883746
:100EF00009F467C038F4883609F463C0803709F410
:100F000060C0C5C0883809F4B4C0803909F45FC036
:100F1000803809F0BCC05BC0803B09F484C038F461
:100F2000803A09F466C0883A09F47DC0B0C0803CBC
:100F300009F4A3C0883C09F4A0C0883B09F486C02A
:100F4000A6C08091B40110C09091B3018091B2010C
:100F5000981770F5E091B30181E08E0F8093B30193
:100F6000F0E0EE56FE4F80818093BB0085EC82C09E
:100F700080938E018AC0E091B30181E08E0F80934F
:100F8000B3018091BB00F0E0EE56FE4F808390915C
:100F9000B3018091B2016AC0E091B30181E08E0F8C
:100FA0008093B3018091BB00F0E0EE56FE4F80834A
:100FB00080919101811169C081E08093900184EA60
:100FC0005DC083E080938F0110928D01CFCF80911F
:100FD0008D01803208F04DC0E0918D0181E08E0FCF
:100FE00080938D018091BB00F0E0E359FE4F808338
:100FF000BDCF85EC8093BC0010928F0180918D0154
:10100000803230F4E0918D01F0E0E359FE4F108220
:1010100060918D0170E08DE691E0E0E0F0E00995EF
:1010200010928D0134C084E080938F0110926C0186
:1010300010926B01E0E0F0E0099580916B01811165
:1010400005C081E080936B0110924B01E0916C012F
:1010500081E08E0F80936C01F0E0E55BFE4F8081B4
:101060008093BB0090916C0180916B01981708F4FC
:101070007DCF85E88093BC000AC085EC8093BC00DE
:1010800010928F0104C010928E010E944F04FF91B4
:10109000EF91BF91AF919F918F917F916F915F91F0
:1010A0004F913F912F910F900FBE0F901F90189569
:1010B000FC019091B6019C30A0F481E0890F8093EF
:1010C000B6019083892F90E0FC01EE0FFF1F8E0F79
:1010D0009F1FFC01E954FE4F88EB9BE092838183C4
:1010E00008958FEF80830895EAEEF1E01382128273
:1010F00088EE93E0A0E0B0E084839583A683B78375
:1011000024E031E03183208325EC30E035872487EB
:1011100024EC30E03787268720EC30E0318B208BC1
:1011200021EC30E0338B228B22EC30E0358B248BAA
:1011300026EC30E0378B268B118E128E138E148E98
:10114000E7E8F2E01682178210861186128613866F
:101150001486158616861786108A118A128A138AB3
:10116000148A158AEFECF2E013821282848395834D
:10117000A683B78386E191E09183808384EE92E039
:101180000E94580881EE92E00E9458088EED92E08D
:101190000E9458088BED92E00C945808789484B51E
:1011A000826084BD84B5816084BD85B5826085BD63
:1011B00085B5816085BD80916E00816080936E00F1
:1011C00010928100809181008260809381008091E3
:1011D0008100816080938100809180008160809394
:1011E00080008091B10084608093B1008091B00054
:1011F00081608093B00080917A00846080937A004F
:1012000080917A00826080937A0080917A00816078
:1012100080937A0080917A00806880937A0010929F
:10122000C1001092CB021092CC021092CD0210920B
:10123000CE021092890210928A0210928B021092B2
:101240008C020E94D8026B017C014B015C0128EBEF
:10125000820E2BE0921EA11CB11C0E94D8026C15BC
:101260007D058E059F0528F086169706A806B90607
:10127000A0F78AEE91E09093CA028093C9020E947F
:101280008C000E94D8026093890270938A02809336
:101290008B0290938C0264E271E08091C90290917C
:1012A000CA020E946B050E94D8026B017C014B01AF
:1012B0005C013AE0830E911CA11CB11C0E94D80273
:1012C0006C157D058E059F0528F086169706A806E5
:1012D000B906A0F781E080939D020E948C0062E035
:1012E00082E00E943D0261E08EE00E943D0261E0EA
:1012F0008EE00E940E0220E639E044EF51E06BE000
:1013000070E084EE92E00E94CF0320E639E044EFE3
:1013100051E06AE070E081EE92E00E94CF0320E6A7
:1013200039E044EF51E069E070E08EED92E00E9418
:10133000CF032EE239E04AE852E068E070E08BED3E
:1013400092E00E94CF0364EB70E084EE92E00E9492
:101350004C0366E970E081EE92E00E944C036AEA79
:1013600070E08EED92E00E944C0364EB70E08BED38
:1013700092E00E944C0384EF882E99249394A12C30
:10138000B12C0E94D802672B682B692B41F40E9474
:10139000D802623071058105910508F410C10E94E0
:1013A000D802C090E601D090E701E090E801F0900B
:1013B000E9016C157D058E059F0540F46093E601FB
:1013C0007093E7018093E8019093E901C090E601F2
:1013D000D090E701E090E801F090E9019B01AC01B9
:1013E0002C193D094E095F0969017A013AEFC316CC
:1013F000D104E104F10408F4E2C06093E6017093C3
:10140000E7018093E8019093E90180929502909220
:101410009602A0929702B0929802109299021092AE
:101420009A0210929B0210929C0280918D029091E0
:101430008E02A0918F02B0919002809391029093BE
:101440009202A0939302B09394020E94D8026093F8
:101450008D0270938E0280938F02909390020E946F
:10146000D8026093890270938A0280938B029093D2
:101470008C020E94D8026B017C0166E371E08091CE
:10148000C9029091CA020E946B052AE041E050E037
:1014900060E070E08091C9029091CA020E948005CC
:1014A0006DE371E08091C9029091CA020E946B05C0
:1014B0002AE0B701A6018091C9029091CA020E9458
:1014C00080056FE371E08091C9029091CA020E9489
:1014D0006B0580918D0290918E02A0918F02B09148
:1014E0009002B701A601481B590B6A0B7B0B2AE03F
:1014F0008091C9029091CA020E9480056FE371E059
:101500008091C9029091CA020E946B0540918D02A0
:1015100050918E0260918F027091900280919102A1
:1015200090919202A0919302B0919402481B590BA2
:101530006A0B7B0B2AE08091C9029091CA020E943B
:10154000800561E471E08091C9029091CA020E9415
:101550006B050E94D802AB01BC012AE08091C90250
:101560009091CA020E948005E090C902F090CA02E0
:1015700063E471E0C7010E946B0563E371E0C7019A
:101580000E946B050E94D8026B017C012B013C017B
:1015900045E0440E511C611C711C0E94D8026C1560
:1015A0007D058E059F0508F0C3C00E94D802609398
:1015B0008D0270938E0280938F02909390020E940E
:1015C000EA01892B09F0B1C08091E4019091E50115
:1015D00001969093E5018093E40160E08EE00E9423
:1015E0000E020EE110E024EB30E04EE950E066E937
:1015F00070E084EB90E00E940D0568EC70E080E004
:1016000090E00E949E0224EB30E04EE950E060EB57
:1016100070E084EB90E00E940D0568EC70E080E0E3
:1016200090E00E949E0224EB30E04EE950E060EB37
:1016300070E084EB90E00E940D056CE271E080E0C8
:1016400090E00E949E0204E110E02AE030E04EE9C2
:1016500050E060EB70E084EB90E00E940D0564EFD9
:1016600071E080E090E00E949E022AE030E04AEAC9
:1016700050E060EB70E084EB90E00E940D050E946A
:10168000EA01892BE1F361E08EE00E940E020AE09C
:1016900010E02AE030E04AEA50E060EB70E080E0E1
:1016A00090E00E940D0588EC90E00E94AE0404E1F9
:1016B00010E02AE030E04CE850E060EB70E080E0C1
:1016C00090E00E940D0588EC90E00E94AE0424EBAF
:1016D00030E04CE850E060EB70E080E090E00E9489
:1016E0000D0588EC90E00E94AE040EE110E024EBC2
:1016F00030E04AEA50E066E970E080E090E00E9465
:101700000D0588EC90E00E94AE040AE010E024EBA6
:1017100030E04AEA50E066E970E084EB90E00E9435
:101720000D0561E08EE00E940E020E94B70129CEF5
:10173000461657066806790608F02FCF36CFA1E285
:101740001A2EAA1BBB1BFD010DC0AA1FBB1FEE1F3B
:10175000FF1FA217B307E407F50720F0A21BB30B86
:10176000E40BF50B661F771F881F991F1A9469F702
:1017700060957095809590959B01AC01BD01CF015E
:101780000895052E97FB1EF400940E94D80B57FD78
:1017900007D00E949F0B07FC03D04EF40C94D80B8B
:1017A00050954095309521953F4F4F4F5F4F08958D
:1017B00090958095709561957F4F8F4F9F4F0895BD
:1017C0000E94F30BA59F900DB49F900DA49F800DD8
:1017D000911D11240895B7FF0C94E00B0E94E00BBB
:1017E000821B930B0895A29FB001B39FC001A39FDA
:1017F000700D811D1124911DB29F700D811D11244A
:10180000911D0895991B79E004C0991F961708F05F
:10181000961B881F7A95C9F780950895EE0FFF1FD4
:101820000590F491E02D099481E090E0F8940C94F7
:06183000190CF894FFCF33
:10183600000000004801B400DF0095011001EE0031
:1018460002010000000099048E04AB04DE00870448
:1018560084048104564D4450565F317C315F564DA9
:101866004450560D0A00564D4450455F003A323AF0
:0A187600007C005F564D4450450011
:00000001FF
